{
  "_format": "hh-sol-artifact-1",
  "contractName": "RockPaperScissorsGame",
  "sourceName": "contracts/Game.sol",
  "abi": [
    {
      "inputs": [
        {
          "internalType": "address",
          "name": "_outgoingCommunicationContract",
          "type": "address"
        },
        {
          "internalType": "address",
          "name": "_incomingCommunicationContract",
          "type": "address"
        },
        {
          "internalType": "address[]",
          "name": "_gameContractAddresses",
          "type": "address[]"
        },
        {
          "internalType": "uint256[]",
          "name": "_chainIDs",
          "type": "uint256[]"
        }
      ],
      "stateMutability": "nonpayable",
      "type": "constructor"
    },
    {
      "inputs": [
        {
          "internalType": "address",
          "name": "owner",
          "type": "address"
        }
      ],
      "name": "OwnableInvalidOwner",
      "type": "error"
    },
    {
      "inputs": [
        {
          "internalType": "address",
          "name": "account",
          "type": "address"
        }
      ],
      "name": "OwnableUnauthorizedAccount",
      "type": "error"
    },
    {
      "anonymous": false,
      "inputs": [
        {
          "components": [
            {
              "internalType": "uint256",
              "name": "id",
              "type": "uint256"
            },
            {
              "internalType": "uint256",
              "name": "nMoves",
              "type": "uint256"
            },
            {
              "internalType": "address",
              "name": "player1",
              "type": "address"
            },
            {
              "internalType": "uint256",
              "name": "player1ChainID",
              "type": "uint256"
            },
            {
              "internalType": "address",
              "name": "player2",
              "type": "address"
            },
            {
              "internalType": "uint256",
              "name": "player2ChainID",
              "type": "uint256"
            },
            {
              "internalType": "bytes32",
              "name": "player1MoveHash",
              "type": "bytes32"
            },
            {
              "internalType": "enum RockPaperScissorsGame.Move",
              "name": "player1Move",
              "type": "uint8"
            },
            {
              "internalType": "enum RockPaperScissorsGame.Move",
              "name": "player2Move",
              "type": "uint8"
            },
            {
              "internalType": "enum RockPaperScissorsGame.Result",
              "name": "result",
              "type": "uint8"
            },
            {
              "internalType": "uint16",
              "name": "blocksForFinality",
              "type": "uint16"
            },
            {
              "internalType": "uint256",
              "name": "player1Bet",
              "type": "uint256"
            },
            {
              "internalType": "uint256",
              "name": "player2Bet",
              "type": "uint256"
            }
          ],
          "indexed": false,
          "internalType": "struct RockPaperScissorsGame.Game",
          "name": "finishedGame",
          "type": "tuple"
        }
      ],
      "name": "GameResult",
      "type": "event"
    },
    {
      "anonymous": false,
      "inputs": [
        {
          "indexed": false,
          "internalType": "uint256",
          "name": "gameId",
          "type": "uint256"
        },
        {
          "indexed": false,
          "internalType": "uint256",
          "name": "gameSourceChainId",
          "type": "uint256"
        },
        {
          "indexed": false,
          "internalType": "bytes32",
          "name": "player1MoveHash",
          "type": "bytes32"
        },
        {
          "indexed": false,
          "internalType": "enum RockPaperScissorsGame.Move",
          "name": "move",
          "type": "uint8"
        }
      ],
      "name": "MoveReceived",
      "type": "event"
    },
    {
      "anonymous": false,
      "inputs": [
        {
          "indexed": true,
          "internalType": "address",
          "name": "previousOwner",
          "type": "address"
        },
        {
          "indexed": true,
          "internalType": "address",
          "name": "newOwner",
          "type": "address"
        }
      ],
      "name": "OwnershipTransferred",
      "type": "event"
    },
    {
      "inputs": [
        {
          "internalType": "uint256",
          "name": "",
          "type": "uint256"
        }
      ],
      "name": "gameContractAddresses",
      "outputs": [
        {
          "internalType": "address",
          "name": "",
          "type": "address"
        }
      ],
      "stateMutability": "view",
      "type": "function"
    },
    {
      "inputs": [
        {
          "internalType": "uint256",
          "name": "",
          "type": "uint256"
        }
      ],
      "name": "gameCounter",
      "outputs": [
        {
          "internalType": "uint256",
          "name": "",
          "type": "uint256"
        }
      ],
      "stateMutability": "view",
      "type": "function"
    },
    {
      "inputs": [
        {
          "internalType": "uint256",
          "name": "",
          "type": "uint256"
        },
        {
          "internalType": "uint256",
          "name": "",
          "type": "uint256"
        }
      ],
      "name": "games",
      "outputs": [
        {
          "internalType": "uint256",
          "name": "id",
          "type": "uint256"
        },
        {
          "internalType": "uint256",
          "name": "nMoves",
          "type": "uint256"
        },
        {
          "internalType": "address",
          "name": "player1",
          "type": "address"
        },
        {
          "internalType": "uint256",
          "name": "player1ChainID",
          "type": "uint256"
        },
        {
          "internalType": "address",
          "name": "player2",
          "type": "address"
        },
        {
          "internalType": "uint256",
          "name": "player2ChainID",
          "type": "uint256"
        },
        {
          "internalType": "bytes32",
          "name": "player1MoveHash",
          "type": "bytes32"
        },
        {
          "internalType": "enum RockPaperScissorsGame.Move",
          "name": "player1Move",
          "type": "uint8"
        },
        {
          "internalType": "enum RockPaperScissorsGame.Move",
          "name": "player2Move",
          "type": "uint8"
        },
        {
          "internalType": "enum RockPaperScissorsGame.Result",
          "name": "result",
          "type": "uint8"
        },
        {
          "internalType": "uint16",
          "name": "blocksForFinality",
          "type": "uint16"
        },
        {
          "internalType": "uint256",
          "name": "player1Bet",
          "type": "uint256"
        },
        {
          "internalType": "uint256",
          "name": "player2Bet",
          "type": "uint256"
        }
      ],
      "stateMutability": "view",
      "type": "function"
    },
    {
      "inputs": [],
      "name": "incomingCommunicationContract",
      "outputs": [
        {
          "internalType": "address",
          "name": "",
          "type": "address"
        }
      ],
      "stateMutability": "view",
      "type": "function"
    },
    {
      "inputs": [],
      "name": "outgoingCommunicationContract",
      "outputs": [
        {
          "internalType": "address",
          "name": "",
          "type": "address"
        }
      ],
      "stateMutability": "view",
      "type": "function"
    },
    {
      "inputs": [],
      "name": "owner",
      "outputs": [
        {
          "internalType": "address",
          "name": "",
          "type": "address"
        }
      ],
      "stateMutability": "view",
      "type": "function"
    },
    {
      "inputs": [
        {
          "internalType": "address",
          "name": "_gameContractAddress",
          "type": "address"
        },
        {
          "internalType": "uint256",
          "name": "_chainID",
          "type": "uint256"
        },
        {
          "internalType": "bytes",
          "name": "data",
          "type": "bytes"
        }
      ],
      "name": "receiveMsg",
      "outputs": [],
      "stateMutability": "nonpayable",
      "type": "function"
    },
    {
      "inputs": [],
      "name": "renounceOwnership",
      "outputs": [],
      "stateMutability": "nonpayable",
      "type": "function"
    },
    {
      "inputs": [
        {
          "internalType": "address",
          "name": "_player2",
          "type": "address"
        },
        {
          "internalType": "uint256",
          "name": "_player2ChainID",
          "type": "uint256"
        },
        {
          "internalType": "bytes32",
          "name": "_moveHash",
          "type": "bytes32"
        },
        {
          "internalType": "uint16",
          "name": "_blocksForFinality",
          "type": "uint16"
        },
        {
          "internalType": "uint256",
          "name": "_player2Bet",
          "type": "uint256"
        }
      ],
      "name": "startGame",
      "outputs": [],
      "stateMutability": "payable",
      "type": "function"
    },
    {
      "inputs": [
        {
          "internalType": "uint256",
          "name": "_gameId",
          "type": "uint256"
        },
        {
          "internalType": "uint256",
          "name": "_gameSourceChainId",
          "type": "uint256"
        },
        {
          "internalType": "enum RockPaperScissorsGame.Move",
          "name": "_move",
          "type": "uint8"
        },
        {
          "internalType": "uint256",
          "name": "_nonce",
          "type": "uint256"
        }
      ],
      "name": "submitMove",
      "outputs": [],
      "stateMutability": "payable",
      "type": "function"
    },
    {
      "inputs": [
        {
          "internalType": "uint256",
          "name": "_gameId",
          "type": "uint256"
        },
        {
          "internalType": "uint256",
          "name": "_gameSourceChainId",
          "type": "uint256"
        },
        {
          "internalType": "enum RockPaperScissorsGame.Move",
          "name": "_move",
          "type": "uint8"
        }
      ],
      "name": "submitMove",
      "outputs": [],
      "stateMutability": "payable",
      "type": "function"
    },
    {
      "inputs": [
        {
          "internalType": "address",
          "name": "newOwner",
          "type": "address"
        }
      ],
      "name": "transferOwnership",
      "outputs": [],
      "stateMutability": "nonpayable",
      "type": "function"
    },
    {
      "inputs": [
        {
          "internalType": "uint256",
          "name": "_chainId",
          "type": "uint256"
        },
        {
          "internalType": "address",
          "name": "_address",
          "type": "address"
        }
      ],
      "name": "updateGameContractAddress",
      "outputs": [],
      "stateMutability": "nonpayable",
      "type": "function"
    },
    {
      "inputs": [
        {
          "internalType": "address",
          "name": "_newAddress",
          "type": "address"
        }
      ],
      "name": "updateIncomingCommunicationContract",
      "outputs": [],
      "stateMutability": "nonpayable",
      "type": "function"
    },
    {
      "inputs": [
        {
          "internalType": "address",
          "name": "_newAddress",
          "type": "address"
        }
      ],
      "name": "updateOutgoingCommunicationContract",
      "outputs": [],
      "stateMutability": "nonpayable",
      "type": "function"
    }
  ],
  "bytecode": "0x6080604052346101ef57612526803803806100198161020c565b92833981016080828203126101ef5761003182610247565b61003d60208401610247565b60408401519091906001600160401b0381116101ef5784019383601f860112156101ef578451946100756100708761025b565b61020c565b9560208088838152019160051b830101918683116101ef57602001905b8282106101f4575050506060810151906001600160401b0382116101ef57019280601f850112156101ef5783516100cb6100708261025b565b9460208087848152019260051b8201019283116101ef57602001905b8282106101df5750505033156101c95760008054336001600160a01b0319821681178355916001600160a01b03909116907f8be0079c531659141344cd1fd0a4f28419497f9722a3daafe3b4186f6b6457e09080a3600380546001600160a01b039283166001600160a01b0319918216179091556004805493909216921691909117905560005b82518110156101ba576001906001600160a01b0361018c8286610272565b51166101988285610272565b516000526005602052604060002090838060a01b03198254161790550161016e565b604051612289908161029d8239f35b631e4fbdf760e01b600052600060045260246000fd5b81518152602091820191016100e7565b600080fd5b6020809161020184610247565b815201910190610092565b6040519190601f01601f191682016001600160401b0381118382101761023157604052565b634e487b7160e01b600052604160045260246000fd5b51906001600160a01b03821682036101ef57565b6001600160401b0381116102315760051b60200190565b80518210156102865760209160051b010190565b634e487b7160e01b600052603260045260246000fdfe608080604052600436101561001357600080fd5b600090813560e01c9081632e87b2d114611850575080635cd1e75814611126578063715018a6146110cc5780638da14a291461108c5780638da5cb5b14611065578063908ab4b114610efc578063b35e046e14610ed3578063c090701314610e93578063c94b1ead14610bee578063ca6718b614610b8f578063d0c48ac514610b66578063dedfb13b14610b33578063e553940614610a3e578063f2fde38b146109b85763f41486a7146100c657600080fd5b606036600319011261035d576004356024356044359160048310156109b4576100ee836118a6565b82156109805781845260026020526040842081855260205260ff600760408620015460101c1661011d816118a6565b610942578184526002602052604084208185526020526001806040862001541480610920575b6108b657839282845260026020526040842082855260205260018060a01b03600260408620015416331480610894575b156108275782845260026020526040842082855260205261019a8160076040872001611908565b828452600260205260408420828552602052600860408520016101be3482546118e5565b90555b828452600260205260408420828552602052600160408520016101e48154611920565b905582845260026020526040842082855260205260018060a01b03600260408620015416331480610805575b6103b0575b5046820361036f5781835260026020526040832081845260205260ff600760408520015416908284526002602052604084208185526020526005604085200154905b838552600260205260408520818652602052600160408620015484865260026020526040862082875260205260ff600760408820015460101c1690604051948360208701528660408701526102ab816118a6565b606086015260808501526102be816118a6565b60a084015260a083526102d260c084611962565b60035482865260056020908152604080882054968852600282528088209388529290529085206007015460181c61ffff16936001600160a01b039182169116813b1561036b5785809461033b60405197889687958694630bc20d3760e41b86526004860161219a565b03925af180156103605761034c5750f35b8161035691611962565b61035d5780f35b80fd5b6040513d84823e3d90fd5b8580fd5b81835260026020526040832081845260205260ff600760408520015460081c1690828452600260205260408420818552602052600360408520015490610257565b909282905260026020526040842083855260205260066040852001549060405160208101916103de816118a6565b60f81b8252856021820152602181526103f8604182611962565b5190200361079a5780835260026020526040832082845260205260ff600760408520015416610426816118a6565b151580610769575b156106f257829181835260026020526040832081845260205260ff60076040852001541682845260026020526040842082855260205260ff600760408620015460081c169061047c826118a6565b610485816118a6565b036104fa57818352600260205260408320818452602052600760408420016203000062ff0000198254161790558183526002602052604083208184526020526000805160206122348339815191526104e66040852060405191829182611eca565b0390a15b6104f48183612006565b38610215565b818352600260205260408320818452602052600160ff600760408620015416610522816118a6565b14806106c0575b801561065e575b80156105fc575b156105a057818352600260205260408320818452602052600760408420016201000062ff0000198254161790558183526002602052604083208184526020526000805160206122348339815191526105986040852060405191829182611eca565b0390a16104ea565b818352600260205260408320818452602052600760408420016202000062ff0000198254161790558183526002602052604083208184526020526000805160206122348339815191526105986040852060405191829182611eca565b50818352600260205260408320818452602052600360ff600760408620015416610625816118a6565b1480156105375750818352600260205260408320818452602052600260ff600760408620015460081c16610658816118a6565b14610537565b50818352600260205260408320818452602052600260ff600760408620015416610687816118a6565b1480156105305750818352600260205260408320818452602052600160ff600760408620015460081c166106ba816118a6565b14610530565b50818352600260205260408320818452602052600360ff600760408620015460081c166106ec816118a6565b14610529565b60a460405162461bcd60e51b815260206004820152604460248201527f47616d65206e6f742066696e69736865642e204974206d75737420626520666960448201527f6e6973686564206265666f72652064657465726d696e696e6720746865207769606482015263373732b960e11b6084820152fd5b5080835260026020526040832082845260205260ff600760408520015460081c16610793816118a6565b151561042e565b60405162461bcd60e51b815260206004820152603760248201527f50726f7669646564206d6f766520646f65736e2774206d61746368207468652060448201527f686173686564206d6f766520696e207468652067616d650000000000000000006064820152608490fd5b5082845260026020526040842082855260205260036040852001544614610210565b82845260026020526040842082855260205261084981600760408720016118c6565b828452600260205260408420828552602052600180604086200154036101c1578284526002602052604084208285526020526009604085200161088d3482546118e5565b90556101c1565b5082845260026020526040842082855260205260036040852001544614610173565b608460405162461bcd60e51b815260206004820152604060248201527f5468652062657420726571756972656420746f20706c6179207468652067616d60448201527f6520697320686967686572207468616e2074686520616d6f756e742073656e746064820152fd5b5081845260026020526040842081855260205260096040852001543410610143565b60405162461bcd60e51b815260206004820152601660248201527511d85b5948185b1c9958591e4818dbdb5c1b195d195960521b6044820152606490fd5b60405162461bcd60e51b815260206004820152600c60248201526b496e76616c6964206d6f766560a01b6044820152606490fd5b8380fd5b503461035d57602036600319011261035d576109d2611877565b6109da61220a565b6001600160a01b03168015610a2a5781546001600160a01b03198116821783556001600160a01b03167f8be0079c531659141344cd1fd0a4f28419497f9722a3daafe3b4186f6b6457e08380a380f35b631e4fbdf760e01b82526004829052602482fd5b503461035d57604036600319011261035d5760406101a0916004358152600260205281812060243582526020522080549060018101549061ffff60018060a01b0360028301541660038301549060018060a01b0360048501541691600585015492600686015460078701549460ff86169260ff8760081c169460ff8860101c1696600960088c01549b01549b60206040519e8f908152015260408d015260608c015260808b015260a08a015260c0890152610af8816118a6565b60e0880152610b06816118a6565b610100870152610b15816118a6565b61012086015260181c16610140840152610160830152610180820152f35b503461035d57602036600319011261035d57602090600435815260058252604060018060a01b0391205416604051908152f35b503461035d578060031936011261035d576004546040516001600160a01b039091168152602090f35b503461035d57604036600319011261035d576024356001600160a01b0381168103610bea57610bbc61220a565b600435825260056020526040822080546001600160a01b0319166001600160a01b0390921691909117905580f35b5080fd5b5060a036600319011261035d57610c03611877565b6064359061ffff8216809203610e8f574683526001602052604083208054610c2a90611920565b9055468352600160205260408320549160405192610c478461192f565b83526020830191600183526040840191338352606085014681526080860192600160a01b6001900316835260a0860192602435845260c08701604435815260e08801948986526101008901928a84526101208a01948b86526101408b019687526101608b0198348a526101808c019a6084358c528d46905260026020528d60408120468252600160205260408220548252602052604090209c518d555160018d0155600160a01b6001900390511660028c0190600160a01b60019003166001600160601b0360a01b8254161790555160038b0155600160a01b6001900390511660048a0190600160a01b60019003166001600160601b0360a01b825416179055516005890155516006880155600787019351610d62816118a6565b610d6c9085611908565b51610d76816118a6565b610d8090846118c6565b51610d8a816118a6565b610d949083611984565b5181549060181b64ffff000000169064ffff000000191617905551600883015551906009015546815260016020528060408120544682526002602052604082208183526020526040822060405180916020820190610df191611eca565b03601f1981018252610e039082611962565b600160a01b60019003600354164684526002602052604084208385526020526040842060050154908185526005602052600160a01b6001900360408620541693468652600260205260408620908652602052604085206007015460181c61ffff1693813b1561036b5785809461033b60405197889687958694630bc20d3760e41b86526004860161219a565b8280fd5b503461035d57602036600319011261035d57610ead611877565b610eb561220a565b60018060a01b03166001600160601b0360a01b600454161760045580f35b503461035d578060031936011261035d576003546040516001600160a01b039091168152602090f35b503461035d57606036600319011261035d57610f16611877565b6044359060243567ffffffffffffffff83116109b457366023840112156109b45782600401359167ffffffffffffffff8311611061573660248486010111611061576004546001600160a01b03163303610ff657818552600560205260408520546001600160a01b03908116911603610f99576024610f969301906119ca565b80f35b60405162461bcd60e51b815260206004820152602f60248201527f496e76616c69642067616d6520636f6e7472616374206164647265737320697360448201526e2073656e64696e672061206d6f766560881b6064820152608490fd5b60405162461bcd60e51b815260206004820152603b60248201527f4f6e6c7920696e636f6d696e6720636f6d6d756e69636174696f6e20636f6e7460448201527f726163742063616e2063616c6c20746869732066756e6374696f6e00000000006064820152608490fd5b8480fd5b503461035d578060031936011261035d57546040516001600160a01b039091168152602090f35b503461035d57602036600319011261035d576110a6611877565b6110ae61220a565b60018060a01b03166001600160601b0360a01b600354161760035580f35b503461035d578060031936011261035d576110e561220a565b80546001600160a01b03198116825581906001600160a01b03167f8be0079c531659141344cd1fd0a4f28419497f9722a3daafe3b4186f6b6457e08280a380f35b50608036600319011261035d5760243560443560048035908210156109b45761114e826118a6565b81156109805782845260026020526040842081855260205260ff600760408620015460101c1661117d816118a6565b61094257828452600260205260408420818552602052600180604086200154148061182e575b6108b657839183835260026020526040832082845260205260018060a01b0360026040852001541633148061180c575b1561179f578383526002602052604083208284526020526111fa8160076040862001611908565b8383526002602052604083208284526020526008604084200161121e3482546118e5565b90555b838352600260205260408320828452602052600160408420016112448154611920565b905583835260026020526040832082845260205260018060a01b0360026040852001541633148061177d575b611408575b504683036113c75782825260026020526040822081835260205260ff600760408420015416908383526002602052604083208184526020526005604084200154905b848452600260205260408420818552602052600160408520015485855260026020526040852082865260205260ff600760408720015460101c16906040519483602087015287604087015261130b816118a6565b6060860152608085015261131e816118a6565b60a084015260a0835261133260c084611962565b60035482855260056020908152604080872054978752600282528087209387529290529084206007015460181c61ffff16946001600160a01b039182169116813b156110615784809461139b60405198899687958694630bc20d3760e41b86526004860161219a565b03925af180156113ba576113ac5780f35b6113b591611962565b388180f35b50604051903d90823e3d90fd5b82825260026020526040822081835260205260ff600760408420015460081c16908383526002602052604083208184526020526003604084200154906112b7565b90918390526002602052604084208285526020526006604085200154906040516020810191611436816118a6565b60f81b8252606435602182015260218152611452604182611962565b5190200361079a5781835260026020526040832081845260205260ff600760408520015416611480816118a6565b15158061174c575b156106f257829082825260026020526040822081835260205260ff60076040842001541683835260026020526040832082845260205260ff600760408520015460081c16906114d6826118a6565b6114df816118a6565b0361155457828252600260205260408220818352602052600760408320016203000062ff0000198254161790558282526002602052604082208183526020526000805160206122348339815191526115406040842060405191829182611eca565b0390a15b61154e8184612006565b38611275565b828252600260205260408220818352602052600160ff60076040852001541661157c816118a6565b148061171a575b80156116b8575b8015611656575b156115fa57828252600260205260408220818352602052600760408320016201000062ff0000198254161790558282526002602052604082208183526020526000805160206122348339815191526115f26040842060405191829182611eca565b0390a1611544565b828252600260205260408220818352602052600760408320016202000062ff0000198254161790558282526002602052604082208183526020526000805160206122348339815191526115f26040842060405191829182611eca565b50828252600260205260408220818352602052600360ff60076040852001541661167f816118a6565b1480156115915750828252600260205260408220818352602052600260ff600760408520015460081c166116b2816118a6565b14611591565b50828252600260205260408220818352602052600260ff6007604085200154166116e1816118a6565b14801561158a5750828252600260205260408220818352602052600160ff600760408520015460081c16611714816118a6565b1461158a565b50828252600260205260408220818352602052600360ff600760408520015460081c16611746816118a6565b14611583565b5081835260026020526040832081845260205260ff600760408520015460081c16611776816118a6565b1515611488565b5083835260026020526040832082845260205260036040842001544614611270565b8383526002602052604083208284526020526117c181600760408620016118c6565b8383526002602052604083208284526020526001806040852001540361122157838352600260205260408320828452602052600960408420016118053482546118e5565b9055611221565b50838352600260205260408320828452602052600360408420015446146111d3565b50828452600260205260408420818552602052600960408520015434106111a3565b905034610bea576020366003190112610bea57604060209260043581526001845220548152f35b600435906001600160a01b038216820361188d57565b600080fd5b35906001600160a01b038216820361188d57565b600411156118b057565b634e487b7160e01b600052602160045260246000fd5b906118d0816118a6565b61ff0082549160081b169061ff001916179055565b919082018092116118f257565b634e487b7160e01b600052601160045260246000fd5b90611912816118a6565b60ff80198354169116179055565b60001981146118f25760010190565b6101a0810190811067ffffffffffffffff82111761194c57604052565b634e487b7160e01b600052604160045260246000fd5b90601f8019910116810190811067ffffffffffffffff82111761194c57604052565b9061198e816118a6565b62ff000082549160101b169062ff00001916179055565b9094939260609260808301968352602083015260408201526119c6836118a6565b0152565b90809260a08114600014611bfa5760a092508101031261188d578035602082013590604083013592600484101561188d57608081013590600482101561188d5783600052600260205260406000208360005260205260018060a01b036002604060002001541615611bc25783600052600260205260406000208360005260205260016040600020015490600182018092116118f2576060013503611b7d578260005260026020526040600020826000526020526001604060002001611a8f8154611920565b9055468303611b5257826000526002602052604060002082600052602052611abe8460076040600020016118c6565b826000526002602052604060002082600052602052611ae4816007604060002001611984565b611aed816118a6565b611b4557611b407fae914f9dfce634f2d381291a260d6dab56bfe42418165baa9fb7c3e4a6f3599f93836000526002602052604060002083600052602052600660406000200154604051948594856119a5565b0390a1565b90611b509250612006565b565b826000526002602052604060002082600052602052611b78846007604060002001611908565b611abe565b60405162461bcd60e51b815260206004820152601b60248201527f4e6f6e206578706563746564206e756d626572206f66206d6f766500000000006044820152606490fd5b60405162461bcd60e51b815260206004820152601060248201526f11d85b59481b9bdd0818dc99585d195960821b6044820152606490fd5b90506101a08114611c3c5760405162461bcd60e51b815260206004820152600f60248201526e556e6b6e6f776e204d65737361676560881b6044820152606490fd5b826101a0918101031261188d57600091604051611c588161192f565b81358152602081019160208101358352611c7460408201611892565b926040830193845260608201356060840192818452611c9560808201611892565b6080860190815260a086019260a0830135845260c087019760c0840135895260e08401359a60048c101561035d5760e089019b8c5261010085013590600482101561035d576101008a01918252610120860135916004831015610bea576101208b019283526101408701359461ffff86168603610e8f57908b9695949392916101408801958652610180806101608a01996101608c01358b5201990135895282526002602052604082208c51835260205260018060a01b03600260408420015416611e8e578a5182526002602081815260408085208f5186529091529092208c518155995160018b0155925190890180546001600160a01b03199081166001600160a01b03938416179091558a5160038b0155945160048a01805490961691161790935594516005870155885160068701558a516009956007880193611e0e929091611dfe91611dee90611de8816118a6565b87611908565b51611df8816118a6565b856118c6565b51611e08816118a6565b83611984565b5164ffff00000082549160181b169064ffff00000019161790555160088401555191015551809314611e41575b50505050565b7fae914f9dfce634f2d381291a260d6dab56bfe42418165baa9fb7c3e4a6f3599f93611e8291519251905190611e76826118a6565b604051948594856119a5565b0390a138808080611e3b565b60405162461bcd60e51b815260206004820152601460248201527311d85b5948185b1c9958591e4818dc99585d195960621b6044820152606490fd5b815481526001820154602082015260028201546001600160a01b039081166040830152600383015460608301526004830154166080820152600582015460a0820152600682015460c082015260078201546101a082019392610180916009919061ffff9060ff8116611f3b816118a6565b60e087015260ff8160081c16611f50816118a6565b61010087015260ff8160101c16611f66816118a6565b61012087015260181c1661014085015260088101546101608501520154910152565b3d15611fc3573d9067ffffffffffffffff821161194c5760405191611fb7601f8201601f191660200184611962565b82523d6000602084013e565b606090565b15611fcf57565b60405162461bcd60e51b815260206004820152600f60248201526e151c985b9cd9995c8819985a5b1959608a1b6044820152606490fd5b80600052600260205260406000208260005260205260ff60076040600020015460101c16612033816118a6565b1561215557468114808061211f575b156120925750600090815260026020818152604080842094845293905291812060088101805490839055920154611b50928291829182916001600160a01b03165af161208c611f88565b50611fc8565b15806120e9575b6120a1575050565b600090815260026020908152604080832093835292905290812060098101805490839055600490910154611b5092918291829182916001600160a01b03165af161208c611f88565b50806000526002602052604060002082600052602052600260ff60076040600020015460101c16612119816118a6565b14612099565b50816000526002602052604060002083600052602052600160ff60076040600020015460101c1661214f816118a6565b14612042565b60405162461bcd60e51b815260206004820152601f60248201527f2047616d6520726573756c74206e6f74207965742064657465726d696e6564006044820152606490fd5b92909493919460a084528051908160a086015260005b8281106121f4575050608092849260c08360008261ffff96829a010152601f80199101168501019760018060a01b0316602085015260408401521660608201520152565b80602080928401015160c08289010152016121b0565b6000546001600160a01b0316330361221e57565b63118cdaa760e01b6000523360045260246000fdfe27ea1069092769d2b3edfe93e02eabf00562c238bf0c8ec6eaaf98c342cb7dbda2646970667358221220978b3fe1c07a2997bcdefcaab542ed51d6f52397c97d24de7bee391b2147c18964736f6c634300081b0033",
  "linkReferences": {},
  "deployedLinkReferences": {}
}