{
  "_format": "hh-sol-artifact-1",
  "contractName": "IncomingCommunication",
  "sourceName": "contracts/IncomingCommunication.sol",
  "abi": [
    {
      "inputs": [
        {
          "internalType": "uint256[]",
          "name": "_blockChainIds",
          "type": "uint256[]"
        },
        {
          "internalType": "address[]",
          "name": "_blockChainAddresses",
          "type": "address[]"
        },
        {
          "internalType": "address",
          "name": "_verificationAdress",
          "type": "address"
        }
      ],
      "stateMutability": "payable",
      "type": "constructor"
    },
    {
      "inputs": [
        {
          "internalType": "address",
          "name": "owner",
          "type": "address"
        }
      ],
      "name": "OwnableInvalidOwner",
      "type": "error"
    },
    {
      "inputs": [
        {
          "internalType": "address",
          "name": "account",
          "type": "address"
        }
      ],
      "name": "OwnableUnauthorizedAccount",
      "type": "error"
    },
    {
      "anonymous": false,
      "inputs": [
        {
          "indexed": false,
          "internalType": "address",
          "name": "relayer",
          "type": "address"
        },
        {
          "indexed": false,
          "internalType": "uint256",
          "name": "sourceBC",
          "type": "uint256"
        },
        {
          "indexed": false,
          "internalType": "uint256[]",
          "name": "inboundMessageNumbers",
          "type": "uint256[]"
        },
        {
          "indexed": false,
          "internalType": "bool[]",
          "name": "successfullInbound",
          "type": "bool[]"
        },
        {
          "indexed": false,
          "internalType": "string[]",
          "name": "failureReasons",
          "type": "string[]"
        }
      ],
      "name": "InboundMessagesRes",
      "type": "event"
    },
    {
      "anonymous": false,
      "inputs": [
        {
          "indexed": true,
          "internalType": "address",
          "name": "previousOwner",
          "type": "address"
        },
        {
          "indexed": true,
          "internalType": "address",
          "name": "newOwner",
          "type": "address"
        }
      ],
      "name": "OwnershipTransferred",
      "type": "event"
    },
    {
      "inputs": [],
      "name": "getBalance",
      "outputs": [
        {
          "internalType": "uint256",
          "name": "",
          "type": "uint256"
        }
      ],
      "stateMutability": "view",
      "type": "function"
    },
    {
      "inputs": [
        {
          "internalType": "uint256",
          "name": "",
          "type": "uint256"
        },
        {
          "internalType": "uint256",
          "name": "",
          "type": "uint256"
        }
      ],
      "name": "inMsgStatusPerChainIdAndMsgNumber",
      "outputs": [
        {
          "internalType": "enum IncomingCommunication.IncomingMsgStatus",
          "name": "",
          "type": "uint8"
        }
      ],
      "stateMutability": "view",
      "type": "function"
    },
    {
      "inputs": [
        {
          "components": [
            {
              "internalType": "bytes",
              "name": "status",
              "type": "bytes"
            },
            {
              "internalType": "uint256",
              "name": "cumulativeGasUsed",
              "type": "uint256"
            },
            {
              "internalType": "bytes",
              "name": "logsBloom",
              "type": "bytes"
            },
            {
              "components": [
                {
                  "internalType": "address",
                  "name": "txAddress",
                  "type": "address"
                },
                {
                  "internalType": "bytes[]",
                  "name": "topics",
                  "type": "bytes[]"
                },
                {
                  "internalType": "bytes",
                  "name": "data",
                  "type": "bytes"
                }
              ],
              "internalType": "struct IVerification.Log[]",
              "name": "logs",
              "type": "tuple[]"
            },
            {
              "internalType": "bytes",
              "name": "txType",
              "type": "bytes"
            },
            {
              "internalType": "bytes",
              "name": "rlpEncTxIndex",
              "type": "bytes"
            }
          ],
          "internalType": "struct IVerification.Receipt[]",
          "name": "_receipts",
          "type": "tuple[]"
        },
        {
          "internalType": "bytes[][]",
          "name": "_proofs",
          "type": "bytes[][]"
        },
        {
          "internalType": "address",
          "name": "_relayer",
          "type": "address"
        },
        {
          "internalType": "uint256",
          "name": "_sourceBC",
          "type": "uint256"
        },
        {
          "internalType": "uint256[]",
          "name": "_sourceBlockNumbers",
          "type": "uint256[]"
        }
      ],
      "name": "inboundMessages",
      "outputs": [],
      "stateMutability": "nonpayable",
      "type": "function"
    },
    {
      "inputs": [],
      "name": "owner",
      "outputs": [
        {
          "internalType": "address",
          "name": "",
          "type": "address"
        }
      ],
      "stateMutability": "view",
      "type": "function"
    },
    {
      "inputs": [],
      "name": "renounceOwnership",
      "outputs": [],
      "stateMutability": "nonpayable",
      "type": "function"
    },
    {
      "inputs": [
        {
          "internalType": "uint256",
          "name": "",
          "type": "uint256"
        }
      ],
      "name": "sourceAddresesPerChainId",
      "outputs": [
        {
          "internalType": "address",
          "name": "",
          "type": "address"
        }
      ],
      "stateMutability": "view",
      "type": "function"
    },
    {
      "inputs": [
        {
          "internalType": "address",
          "name": "newOwner",
          "type": "address"
        }
      ],
      "name": "transferOwnership",
      "outputs": [],
      "stateMutability": "nonpayable",
      "type": "function"
    },
    {
      "inputs": [
        {
          "internalType": "uint256",
          "name": "_chainId",
          "type": "uint256"
        },
        {
          "internalType": "address",
          "name": "_address",
          "type": "address"
        }
      ],
      "name": "updateSourceAddresses",
      "outputs": [],
      "stateMutability": "nonpayable",
      "type": "function"
    },
    {
      "inputs": [
        {
          "internalType": "address",
          "name": "_newAddress",
          "type": "address"
        }
      ],
      "name": "updateVerificationContract",
      "outputs": [],
      "stateMutability": "nonpayable",
      "type": "function"
    }
  ],
  "bytecode": "0x608060405261173380380380610014816101e6565b9283398101906060818303126101d15780516001600160401b0381116101d15781019082601f830112156101d15781519161005661005184610221565b6101e6565b9260208085838152019160051b830101918583116101d157602001905b8282106101d65750505060208101516001600160401b0381116101d15781019280601f850112156101d15783516100ac61005182610221565b9460208087848152019260051b8201019283116101d157602001905b8282106101b95750505060406100de9101610238565b9033156101a35760008054336001600160a01b0319821681178355916001600160a01b03909116907f8be0079c531659141344cd1fd0a4f28419497f9722a3daafe3b4186f6b6457e09080a360005b8151811015610179576001906001600160a01b0361014b828761024c565b5116610157828561024c565b516000526003602052604060002090838060a01b03198254161790550161012d565b600180546001600160a01b0319166001600160a01b0385161790556040516114bc90816102778239f35b631e4fbdf760e01b600052600060045260246000fd5b602080916101c684610238565b8152019101906100c8565b600080fd5b8151815260209182019101610073565b6040519190601f01601f191682016001600160401b0381118382101761020b57604052565b634e487b7160e01b600052604160045260246000fd5b6001600160401b03811161020b5760051b60200190565b51906001600160a01b03821682036101d157565b80518210156102605760209160051b010190565b634e487b7160e01b600052603260045260246000fdfe6080604052600436101561001257600080fd5b60003560e01c80630d4f7b08146110be5780630e05e15d1461107857806312065fe01461105c578063273a6b0e14610206578063715018a6146101ad5780638da5cb5b14610184578063c89c038614610150578063e22976181461010d5763f2fde38b1461007f57600080fd5b3461010857602036600319011261010857610098611110565b6100a0611449565b6001600160a01b031680156100f257600080546001600160a01b03198116831782556001600160a01b0316907f8be0079c531659141344cd1fd0a4f28419497f9722a3daafe3b4186f6b6457e09080a3005b631e4fbdf760e01b600052600060045260246000fd5b600080fd5b3461010857602036600319011261010857610126611110565b61012e611449565b600180546001600160a01b0319166001600160a01b0392909216919091179055005b34610108576020366003190112610108576004356000526003602052602060018060a01b0360406000205416604051908152f35b34610108576000366003190112610108576000546040516001600160a01b039091168152602090f35b34610108576000366003190112610108576101c6611449565b600080546001600160a01b0319811682556001600160a01b03167f8be0079c531659141344cd1fd0a4f28419497f9722a3daafe3b4186f6b6457e08280a3005b346101085760a0366003190112610108576004356001600160401b03811161010857610236903690600401611126565b90602435906001600160401b03821161010857366023830112156101085781600401356102628161118d565b926102706040519485611156565b8184526024602085019260051b820101903682116101085760248101925b828410610fa6575050604435939150506001600160a01b0383168303610108576084356001600160401b038111610108576102cd903690600401611126565b929094606435600052600360205260018060a01b036040600020541615610f61576001546040516306534e5960e11b81523360048201526001600160a01b039091169390602081602481885afa908115610a1557600091610f27575b5015610ee9576103388261118d565b936103466040519586611156565b8285526103528361118d565b601f19013660208701376103658361118d565b956103736040519788611156565b83875261037f8461118d565b601f19013660208901376103928461118d565b986103a06040519a8b611156565b848a52601f196103af8661118d565b018a60005b828110610ed7575050506103c6611203565b946000965b8188106104e2578b8b8b8b6040519260a084019060018060a01b03168452606435602085015260a060408501528151809152602060c0850192019060005b8181106104cc5750505082810360608401526020808351928381520192019060005b8181106104b4575050508181036080830152825180825260208201916020808360051b8301019501926000915b838310610487577f966b9e60ae5ada1d614df1a7330798261c8c3ffe06dcdc0e144c6c179ee820e986880387a1005b90919293956020806104a5600193601f198682030187528a516113ae565b98019301930191939290610458565b8251151584526020938401939092019160010161042b565b8251845260209384019390920191600101610409565b909192939495996105056104fb89859a9e9c9a85611252565b606081019061128a565b905015610e6057600061051d6104fb8e5b8686611252565b9050811015610e505760643560005260036020528c610558826105526104fb60018060a01b0360406000205416948989611252565b906112d3565b356001600160a01b038116919082900361010857146105805760010161051d6104fb8e610516565b61059d919b506105526104fb8e859b9d9f9a999897968096611252565b604081013590601e198136030182121561010857018035906001600160401b038211610108576020018136038113610108576105da9136916111bf565b6105e2611203565b506105eb611203565b90805181019061010081602084019303126101085760208101516001600160401b03811161010857810182603f8201121561010857602081015161062e816111a4565b9361063c6040519586611156565b818552604083830101116101085761065b91604060208601910161138b565b61066760408201611472565b61067360608301611472565b608083015160a08401519161ffff83168093036101085760c08501519361010061069f60e088016111f6565b9601519688526001600160a01b0390811660208901521660408701526060860152608085015260a0840152151560c083015260e0820152955b60a08701516106e7828b6112bf565b526064356000526002602052604060002060a088015160005260205260ff604060002054166004811015610dd8578a60018e9214610dee5750506064356000526002602052604060002060a088015160005260205260ff604060002054166004811015610dd8578a60028e9214610d765750506107658185856112f5565b3561ffff6080890151168101809111610d6057604051906301f535a760e31b825260643560048301526024820152602081604481895afa908115610a15578d918c91600091610d22575b5015610cb95750506107c281838a611252565b6107cc82886112bf565b516064356000908152600360205260409020546001600160a01b0316916107f48488886112f5565b35916040519384926396bc1e8f60e01b845260a0600485015261085861082f61081d8380611305565b60c060a4890152610164880191611336565b602083013560c48701526108466040840184611305565b87830360a3190160e489015290611336565b6108656060830183611357565b60a319878403016101048801528083526020600582901b840181019390810191600091845b828410610bd057505050505050906108cd6108c26108e0936108af6080850185611305565b89830360a319016101248b015290611336565b9160a0810190611305565b86830360a3190161014488015290611336565b600319848203016024850152825180825260208201906020808260051b85010195019260005b828110610b9b5750505050509060209383926044840152606435606484015260848301520381895afa908115610a15578d918c91600091610b5a575b5015610afd576001915082610956916112bf565b526064356000526002602052604060002060a08801516000526020526040600020600160ff1982541617905560018060a01b0360408801511660018060a01b036020890151168851823b15610108576109de926000928360405180968195829463908ab4b160e01b8452600484015260643560248401526060604484015260648301906113ae565b03925af19081610aec575b50610ae4576001600060033d11610ad6575b6308c379a014610a21575b610a15576001905b01966103cb565b6040513d6000823e3d90fd5b8c82610a2b6113d3565b9182610a3a575b505050610a06565b610acd929350600093606435855260026020526040852060a08d0151865260205260408520600360ff19825416179055610abd6040805180937f4f6e20636861696e3a207265766572746564207769746820726561736f6e3a206020830152610aac815180926020868601910161138b565b81010301601f198101835282611156565b610ac783836112bf565b526112bf565b508d828e610a32565b600481803e5160e01c6109fb565b600190610a0e565b6000610af791611156565b8d6109e9565b8280926000610b11600196610b54956112bf565b526040610b2081519182611156565b602081527f496e626f756e643a20496e76616c696420696e636c7573696f6e2070726f6f666020820152610ac783836112bf565b50610a0e565b925090506020823d8211610b93575b81610b7660209383611156565b81010312610b9057508a610b8a8e926111f6565b8f610942565b80fd5b3d9150610b69565b9193979650919394602080610bbc600193601f198782030189528b516113ae565b990195019101918896979594939192610906565b9193959092949697989a9950601f198382030186528635605e198336030181121561010857606082019190830180356001600160a01b03811690819003610108578252610c206020820182611357565b809460606020860152526080830160808560051b85010194826000905b828210610c85575050505050610c6f600193602093610c6184604087960190611305565b916040818503910152611336565b980196019401918b999a9897969594939161088a565b9091929396602080610cac600193607f198b8203018952610ca68c87611305565b90611336565b9901950193920190610c3d565b8280926000610ccd600196610b54956112bf565b52604051610cdc606082611156565b602981527f496e626f756e643a2046696e616c697479206e6f74207265616368656420666f60208201526872206d65737361676560b81b6040820152610ac783836112bf565b925090506020823d8211610d58575b81610d3e60209383611156565b81010312610b9057508a610d528e926111f6565b8f6107af565b3d9150610d31565b634e487b7160e01b600052601160045260246000fd5b8280926000610d8a600196610b54956112bf565b52604051610d99606082611156565b602281527f496e626f756e643a204d65737361676520616c72656164792063616e63656c6c602082015261195960f21b6040820152610ac783836112bf565b634e487b7160e01b600052602160045260246000fd5b8280926000610e02600196610b54956112bf565b52604051610e11606082611156565b602281527f496e626f756e643a204d65737361676520616c72656164792064656c69766572602082015261195960f21b6040820152610ac783836112bf565b509995949392919096989a6106d8565b9995949392919096989a80610b54818e6000610e868f968f9783610ac78360019b6112bf565b52604051610e95606082611156565b602581527f496e626f756e643a20526563656970742077697468206e6f206576656e74732060208201526433b4bb32b760d91b6040820152610ac783836112bf565b60606020828194010152018b906103b4565b60405162461bcd60e51b815260206004820152601660248201527514995b185e595c881b9bdd08185d5d1a1bdc9a5e995960521b6044820152606490fd5b90506020813d602011610f59575b81610f4260209383611156565b8101031261010857610f53906111f6565b88610329565b3d9150610f35565b60405162461bcd60e51b815260206004820152601f60248201527f536f7572636520626c6f636b636861696e206e6f7420737570706f72746564006044820152606490fd5b83356001600160401b03811161010857820136604382011215610108576024810135610fd18161118d565b91610fdf6040519384611156565b818352602060248185019360051b83010101903682116101085760448101925b82841061101957505050908252506020938401930161028e565b83356001600160401b0381116101085760249083010136603f82011215610108576020916110518392369060408582013591016111bf565b815201930192610fff565b3461010857600036600319011261010857602047604051908152f35b34610108576040366003190112610108576004356000526002602052604060002060243560005260205260ff604060002054166040516004821015610dd8576020918152f35b34610108576040366003190112610108576024356001600160a01b03811690819003610108576110ec611449565b600435600090815260036020526040902080546001600160a01b0319169091179055005b600435906001600160a01b038216820361010857565b9181601f84011215610108578235916001600160401b038311610108576020808501948460051b01011161010857565b90601f801991011681019081106001600160401b0382111761117757604052565b634e487b7160e01b600052604160045260246000fd5b6001600160401b0381116111775760051b60200190565b6001600160401b03811161117757601f01601f191660200190565b9291926111cb826111a4565b916111d96040519384611156565b829481845281830111610108578281602093846000960137010152565b5190811515820361010857565b6040519061010082018281106001600160401b0382111761117757604052600060e083606081528260208201528260408201528260608201528260808201528260a08201528260c08201520152565b91908110156112745760051b8101359060be1981360301821215610108570190565b634e487b7160e01b600052603260045260246000fd5b903590601e198136030182121561010857018035906001600160401b03821161010857602001918160051b3603831361010857565b80518210156112745760209160051b010190565b91908110156112745760051b81013590605e1981360301821215610108570190565b91908110156112745760051b0190565b9035601e19823603018112156101085701602081359101916001600160401b03821161010857813603831361010857565b908060209392818452848401376000828201840152601f01601f1916010190565b9035601e19823603018112156101085701602081359101916001600160401b038211610108578160051b3603831361010857565b60005b83811061139e5750506000910152565b818101518382015260200161138e565b906020916113c78151809281855285808601910161138b565b601f01601f1916010190565b600060443d10611438576040513d600319016004823e8051913d60248401116001600160401b0384111761144357828201928351916001600160401b03831161143b573d8401600319018584016020011161143b575061143892910160200190611156565b90565b949350505050565b92915050565b6000546001600160a01b0316330361145d57565b63118cdaa760e01b6000523360045260246000fd5b51906001600160a01b03821682036101085756fea2646970667358221220c7e37cc5d7360b778aca6b1e8d1f7bd403e20fa98713ebc6b902d7209d3baa2164736f6c634300081b0033",
  "linkReferences": {},
  "deployedLinkReferences": {}
}