{
  "_format": "hh-sol-artifact-1",
  "contractName": "OutgoingCommunication",
  "sourceName": "contracts/OutgoingCommunication.sol",
  "abi": [
    {
      "inputs": [
        {
          "internalType": "uint256[]",
          "name": "_blockChainIds",
          "type": "uint256[]"
        },
        {
          "internalType": "address[]",
          "name": "_blockChainAddresses",
          "type": "address[]"
        },
        {
          "internalType": "address",
          "name": "_verificationAdress",
          "type": "address"
        }
      ],
      "stateMutability": "payable",
      "type": "constructor"
    },
    {
      "inputs": [
        {
          "internalType": "address",
          "name": "owner",
          "type": "address"
        }
      ],
      "name": "OwnableInvalidOwner",
      "type": "error"
    },
    {
      "inputs": [
        {
          "internalType": "address",
          "name": "account",
          "type": "address"
        }
      ],
      "name": "OwnableUnauthorizedAccount",
      "type": "error"
    },
    {
      "anonymous": false,
      "inputs": [
        {
          "indexed": false,
          "internalType": "uint256",
          "name": "destinationBC",
          "type": "uint256"
        },
        {
          "indexed": false,
          "internalType": "uint256[]",
          "name": "messageNumbers",
          "type": "uint256[]"
        }
      ],
      "name": "MessageDeliveryPaid",
      "type": "event"
    },
    {
      "anonymous": false,
      "inputs": [
        {
          "indexed": false,
          "internalType": "bytes",
          "name": "data",
          "type": "bytes"
        },
        {
          "indexed": false,
          "internalType": "address",
          "name": "sender",
          "type": "address"
        },
        {
          "indexed": false,
          "internalType": "address",
          "name": "receiver",
          "type": "address"
        },
        {
          "indexed": false,
          "internalType": "uint256",
          "name": "destinationBC",
          "type": "uint256"
        },
        {
          "indexed": false,
          "internalType": "uint16",
          "name": "finalityNBlocks",
          "type": "uint16"
        },
        {
          "indexed": false,
          "internalType": "uint256",
          "name": "messageNumber",
          "type": "uint256"
        },
        {
          "indexed": false,
          "internalType": "bool",
          "name": "taxi",
          "type": "bool"
        },
        {
          "indexed": false,
          "internalType": "uint256",
          "name": "fee",
          "type": "uint256"
        }
      ],
      "name": "OutboundMessage",
      "type": "event"
    },
    {
      "anonymous": false,
      "inputs": [
        {
          "indexed": true,
          "internalType": "address",
          "name": "previousOwner",
          "type": "address"
        },
        {
          "indexed": true,
          "internalType": "address",
          "name": "newOwner",
          "type": "address"
        }
      ],
      "name": "OwnershipTransferred",
      "type": "event"
    },
    {
      "anonymous": false,
      "inputs": [
        {
          "indexed": false,
          "internalType": "uint256",
          "name": "destinationBC",
          "type": "uint256"
        },
        {
          "indexed": false,
          "internalType": "uint256",
          "name": "fee",
          "type": "uint256"
        },
        {
          "indexed": false,
          "internalType": "uint256",
          "name": "messageNumber",
          "type": "uint256"
        }
      ],
      "name": "UpdateMessageFee",
      "type": "event"
    },
    {
      "inputs": [
        {
          "internalType": "uint256",
          "name": "",
          "type": "uint256"
        }
      ],
      "name": "destAddresesPerChainId",
      "outputs": [
        {
          "internalType": "address",
          "name": "",
          "type": "address"
        }
      ],
      "stateMutability": "view",
      "type": "function"
    },
    {
      "inputs": [],
      "name": "getBalance",
      "outputs": [
        {
          "internalType": "uint256",
          "name": "",
          "type": "uint256"
        }
      ],
      "stateMutability": "view",
      "type": "function"
    },
    {
      "inputs": [
        {
          "internalType": "uint256",
          "name": "",
          "type": "uint256"
        },
        {
          "internalType": "uint256",
          "name": "",
          "type": "uint256"
        }
      ],
      "name": "msgFeePerDestChainIdAndNumber",
      "outputs": [
        {
          "internalType": "uint256",
          "name": "",
          "type": "uint256"
        }
      ],
      "stateMutability": "view",
      "type": "function"
    },
    {
      "inputs": [
        {
          "internalType": "uint256",
          "name": "",
          "type": "uint256"
        },
        {
          "internalType": "uint256",
          "name": "",
          "type": "uint256"
        }
      ],
      "name": "outMsgStatusPerChainIdAndMsgNumber",
      "outputs": [
        {
          "internalType": "enum OutgoingCommunication.OutgoingMsgStatus",
          "name": "",
          "type": "uint8"
        }
      ],
      "stateMutability": "view",
      "type": "function"
    },
    {
      "inputs": [
        {
          "internalType": "uint256",
          "name": "",
          "type": "uint256"
        }
      ],
      "name": "outgoingMsgNumberPerDestChain",
      "outputs": [
        {
          "internalType": "uint256",
          "name": "",
          "type": "uint256"
        }
      ],
      "stateMutability": "view",
      "type": "function"
    },
    {
      "inputs": [],
      "name": "owner",
      "outputs": [
        {
          "internalType": "address",
          "name": "",
          "type": "address"
        }
      ],
      "stateMutability": "view",
      "type": "function"
    },
    {
      "inputs": [
        {
          "components": [
            {
              "internalType": "address",
              "name": "relayer",
              "type": "address"
            },
            {
              "internalType": "uint256",
              "name": "sourceBC",
              "type": "uint256"
            },
            {
              "internalType": "uint256[]",
              "name": "messageNumbers",
              "type": "uint256[]"
            }
          ],
          "internalType": "struct IVerification.MessagesDelivered",
          "name": "_messagesDelivered",
          "type": "tuple"
        },
        {
          "internalType": "uint256",
          "name": "_destinationBC",
          "type": "uint256"
        },
        {
          "internalType": "uint256",
          "name": "_destinationBlockNumber",
          "type": "uint256"
        },
        {
          "internalType": "address",
          "name": "_destinationEndpoint",
          "type": "address"
        }
      ],
      "name": "payRelayer",
      "outputs": [],
      "stateMutability": "payable",
      "type": "function"
    },
    {
      "inputs": [],
      "name": "renounceOwnership",
      "outputs": [],
      "stateMutability": "nonpayable",
      "type": "function"
    },
    {
      "inputs": [
        {
          "internalType": "bytes",
          "name": "_messageData",
          "type": "bytes"
        },
        {
          "internalType": "address",
          "name": "_receiver",
          "type": "address"
        },
        {
          "internalType": "uint256",
          "name": "_destinationBC",
          "type": "uint256"
        },
        {
          "internalType": "uint16",
          "name": "_finalityNBlocks",
          "type": "uint16"
        },
        {
          "internalType": "bool",
          "name": "_taxi",
          "type": "bool"
        }
      ],
      "name": "sendMessage",
      "outputs": [],
      "stateMutability": "payable",
      "type": "function"
    },
    {
      "inputs": [
        {
          "internalType": "address",
          "name": "newOwner",
          "type": "address"
        }
      ],
      "name": "transferOwnership",
      "outputs": [],
      "stateMutability": "nonpayable",
      "type": "function"
    },
    {
      "inputs": [
        {
          "internalType": "uint256",
          "name": "_chainId",
          "type": "uint256"
        },
        {
          "internalType": "address",
          "name": "_address",
          "type": "address"
        }
      ],
      "name": "updateDestinationAddresses",
      "outputs": [],
      "stateMutability": "nonpayable",
      "type": "function"
    },
    {
      "inputs": [
        {
          "internalType": "uint256",
          "name": "_destinationBC",
          "type": "uint256"
        },
        {
          "internalType": "uint256",
          "name": "_messageNumber",
          "type": "uint256"
        }
      ],
      "name": "updateMessageFee",
      "outputs": [],
      "stateMutability": "payable",
      "type": "function"
    },
    {
      "inputs": [
        {
          "internalType": "address",
          "name": "_newAddress",
          "type": "address"
        }
      ],
      "name": "updateVerificationContract",
      "outputs": [],
      "stateMutability": "nonpayable",
      "type": "function"
    }
  ],
  "bytecode": "0x6080604052610f1d80380380610014816101e6565b9283398101906060818303126101d15780516001600160401b0381116101d15781019082601f830112156101d15781519161005661005184610221565b6101e6565b9260208085838152019160051b830101918583116101d157602001905b8282106101d65750505060208101516001600160401b0381116101d15781019280601f850112156101d15783516100ac61005182610221565b9460208087848152019260051b8201019283116101d157602001905b8282106101b95750505060406100de9101610238565b9033156101a35760008054336001600160a01b0319821681178355916001600160a01b03909116907f8be0079c531659141344cd1fd0a4f28419497f9722a3daafe3b4186f6b6457e09080a360005b8151811015610179576001906001600160a01b0361014b828761024c565b5116610157828561024c565b516000526005602052604060002090838060a01b03198254161790550161012d565b600180546001600160a01b0319166001600160a01b038516179055604051610ca690816102778239f35b631e4fbdf760e01b600052600060045260246000fd5b602080916101c684610238565b8152019101906100c8565b600080fd5b8151815260209182019101610073565b6040519190601f01601f191682016001600160401b0381118382101761020b57604052565b634e487b7160e01b600052604160045260246000fd5b6001600160401b03811161020b5760051b60200190565b51906001600160a01b03821682036101d157565b80518210156102605760209160051b010190565b634e487b7160e01b600052603260045260246000fdfe608080604052600436101561001357600080fd5b60003560e01c90816312065fe014610b5657508063208d69e314610728578063632cb3a1146104e7578063715018a61461048e5780637e3546b8146104625780638da5cb5b14610439578063bc20d3701461028c578063c1f1786614610258578063d37626c114610207578063d59ee8f0146101b2578063e01600451461017f578063e22976181461013c5763f2fde38b146100ae57600080fd5b34610137576020366003190112610137576100c7610b85565b6100cf610c47565b6001600160a01b0316801561012157600080546001600160a01b03198116831782556001600160a01b0316907f8be0079c531659141344cd1fd0a4f28419497f9722a3daafe3b4186f6b6457e09080a3005b631e4fbdf760e01b600052600060045260246000fd5b600080fd5b3461013757602036600319011261013757610155610b85565b61015d610c47565b600180546001600160a01b0319166001600160a01b0392909216919091179055005b346101375761018d36610b9b565b9060005260046020526040600020906000526020526020604060002054604051908152f35b34610137576101c036610b9b565b90600052600260205260406000209060005260205260ff6040600020541660405160048210156101f1576020918152f35b634e487b7160e01b600052602160045260246000fd5b3461013757604036600319011261013757610220610b6f565b610228610c47565b600435600090815260056020526040902080546001600160a01b0319166001600160a01b03909216919091179055005b34610137576020366003190112610137576004356000526005602052602060018060a01b0360406000205416604051908152f35b60a03660031901126101375760043567ffffffffffffffff8111610137573660238201121561013757806004013567ffffffffffffffff8111610137573660248284010111610137576102dd610b6f565b90604435926064359161ffff831680930361013757608435801515809103610137576000868152600560205260409020546001600160a01b0316156103e85785600052600360205260406000209485549460001986146103d2577f3f374d4d2c99074ecabc37270238861a119e71645e0dd33c02df487ce064bd16976024976001610120980190558060005260036020526040600020549285604051998a986101008a52826101008b0152018989013760008787018901523360208801526001600160a01b031660408701526060860152608085015260a084015260c08301523460e0830152601f01601f19168101030190a1005b634e487b7160e01b600052601160045260246000fd5b60405162461bcd60e51b8152602060048201526024808201527f44657374696e6174696f6e20626c6f636b636861696e206e6f7420737570706f6044820152631c9d195960e21b6064820152608490fd5b34610137576000366003190112610137576000546040516001600160a01b039091168152602090f35b346101375760203660031901126101375760043560005260036020526020604060002054604051908152f35b34610137576000366003190112610137576104a7610c47565b600080546001600160a01b0319811682556001600160a01b03167f8be0079c531659141344cd1fd0a4f28419497f9722a3daafe3b4186f6b6457e08280a3005b6104f036610b9b565b9080600052600260205260406000208260005260205260ff6040600020541660048110156101f157156106c95780600052600260205260406000208260005260205260ff6040600020541660048110156101f1576002146106535780600052600260205260406000208260005260205260ff6040600020541660048110156101f1576003146105f5578060005260046020526040600020826000526020526040600020908154923484018094116103d2577f91231857581d3f39eb59c130b7a2e845c0a9d7609da0d239231941821b1214d7936060935581600052600460205260406000208160005260205260406000205460405192835260208301526040820152a1005b60405162461bcd60e51b815260206004820152603060248201527f547279696e6720746f20757064617465207468652066656520666f722061206360448201526f616e63656c6c6564206d65737361676560801b6064820152608490fd5b60405162461bcd60e51b815260206004820152604260248201527f547279696e6720746f20757064617465207468652066656520666f7220616e2060448201527f616c72656164792064656c69766572656420616e642070616964206d65737361606482015261676560f01b608482015260a490fd5b60405162461bcd60e51b815260206004820152603160248201527f547279696e6720746f20757064617465207468652066656520666f7220616e20604482015270756e646566696e6564206d65737361676560781b6064820152608490fd5b60803660031901126101375760043567ffffffffffffffff81116101375780600401908036036060600319820112610137576064356001600160a01b038116926024359160443590859003610137576001546040516306534e5960e11b81523360048201526001600160a01b0390911695906020816024818a5afa908115610a7757600091610b37575b5015610af957602082018083116103d257604051906301f535a760e31b825285600483015260248201526020816044818a5afa908115610a7757600091610ada575b5015610a8357604051635050ceaf60e01b8152608060048201528735966001600160a01b03881680891415959294929086610137576084860152602481013560a48601526044810197883590602219018112156101375701916024600484013593019367ffffffffffffffff8411610137578360051b93843603861361013757606060c488015260e487018190526001600160fb1b03106101375785848195936101049383956020998686013760248401528a6044840152606483015281010301915afa908115610a7757600091610a48575b5015610a035760005b6108da8487610beb565b9050811015610a01578260005260046020526040600020610905826108ff878a610beb565b90610c21565b35600052602052604060002054836000526004602052604060002061092e836108ff888b610beb565b35600052602052826000604081205561013757600080808093895af13d156109fc573d67ffffffffffffffff81116109e65760405190610978601f8201601f191660200183610bb1565b8152600060203d92013e5b15610990576001016108d0565b6109ad86916108ff86866000526004602052604060002094610beb565b35600052602052606460405162461bcd60e51b815260206004820152600b60248201526a10d85b1b0819985a5b195960aa1b6044820152fd5b634e487b7160e01b600052604160045260246000fd5b610983565b005b60405162461bcd60e51b815260206004820152601d60248201527f496e76616c6964206d6573736167652064656c697665727920646174610000006044820152606490fd5b610a6a915060203d602011610a70575b610a628183610bb1565b810190610bd3565b866108c7565b503d610a58565b6040513d6000823e3d90fd5b60405162461bcd60e51b815260206004820152602960248201527f46696e616c697479206e6f74207265616368656420666f72206d6573736167656044820152682064656c697665727960b81b6064820152608490fd5b610af3915060203d602011610a7057610a628183610bb1565b886107f4565b60405162461bcd60e51b815260206004820152601660248201527514995b185e595c881b9bdd08185d5d1a1bdc9a5e995960521b6044820152606490fd5b610b50915060203d602011610a7057610a628183610bb1565b886107b2565b3461013757600036600319011261013757602090478152f35b602435906001600160a01b038216820361013757565b600435906001600160a01b038216820361013757565b6040906003190112610137576004359060243590565b90601f8019910116810190811067ffffffffffffffff8211176109e657604052565b90816020910312610137575180151581036101375790565b903590601e1981360301821215610137570180359067ffffffffffffffff821161013757602001918160051b3603831361013757565b9190811015610c315760051b0190565b634e487b7160e01b600052603260045260246000fd5b6000546001600160a01b03163303610c5b57565b63118cdaa760e01b6000523360045260246000fdfea26469706673582212201445d06534624cc471bae90b15611cdf8f8b1824f1ef98a503f0cee4f299a64164736f6c634300081b0033",
  "linkReferences": {},
  "deployedLinkReferences": {}
}