{
  "_format": "hh-sol-artifact-1",
  "contractName": "Verification",
  "sourceName": "contracts/Verification.sol",
  "abi": [
    {
      "inputs": [
        {
          "internalType": "uint256[]",
          "name": "_blockChainIds",
          "type": "uint256[]"
        },
        {
          "internalType": "uint256[]",
          "name": "_blockChainNumber",
          "type": "uint256[]"
        },
        {
          "internalType": "address[][]",
          "name": "_adddresses",
          "type": "address[][]"
        }
      ],
      "stateMutability": "nonpayable",
      "type": "constructor"
    },
    {
      "inputs": [
        {
          "internalType": "address",
          "name": "owner",
          "type": "address"
        }
      ],
      "name": "OwnableInvalidOwner",
      "type": "error"
    },
    {
      "inputs": [
        {
          "internalType": "address",
          "name": "account",
          "type": "address"
        }
      ],
      "name": "OwnableUnauthorizedAccount",
      "type": "error"
    },
    {
      "anonymous": false,
      "inputs": [
        {
          "indexed": true,
          "internalType": "address",
          "name": "previousOwner",
          "type": "address"
        },
        {
          "indexed": true,
          "internalType": "address",
          "name": "newOwner",
          "type": "address"
        }
      ],
      "name": "OwnershipTransferred",
      "type": "event"
    },
    {
      "inputs": [
        {
          "internalType": "uint256",
          "name": "",
          "type": "uint256"
        },
        {
          "internalType": "address",
          "name": "",
          "type": "address"
        }
      ],
      "name": "addressesPerChainId",
      "outputs": [
        {
          "internalType": "bool",
          "name": "",
          "type": "bool"
        }
      ],
      "stateMutability": "view",
      "type": "function"
    },
    {
      "inputs": [
        {
          "internalType": "address",
          "name": "",
          "type": "address"
        }
      ],
      "name": "allowedOracles",
      "outputs": [
        {
          "internalType": "bool",
          "name": "",
          "type": "bool"
        }
      ],
      "stateMutability": "view",
      "type": "function"
    },
    {
      "inputs": [
        {
          "internalType": "address",
          "name": "",
          "type": "address"
        }
      ],
      "name": "allowedRelayers",
      "outputs": [
        {
          "internalType": "bool",
          "name": "",
          "type": "bool"
        }
      ],
      "stateMutability": "view",
      "type": "function"
    },
    {
      "inputs": [
        {
          "internalType": "uint256",
          "name": "",
          "type": "uint256"
        }
      ],
      "name": "blocknumberPerChainId",
      "outputs": [
        {
          "internalType": "uint256",
          "name": "",
          "type": "uint256"
        }
      ],
      "stateMutability": "view",
      "type": "function"
    },
    {
      "inputs": [
        {
          "internalType": "address",
          "name": "_sender",
          "type": "address"
        }
      ],
      "name": "checkAllowedRelayers",
      "outputs": [
        {
          "internalType": "bool",
          "name": "",
          "type": "bool"
        }
      ],
      "stateMutability": "view",
      "type": "function"
    },
    {
      "inputs": [
        {
          "internalType": "uint256",
          "name": "_blockChainNumber",
          "type": "uint256"
        },
        {
          "internalType": "uint256",
          "name": "_blockNumber",
          "type": "uint256"
        }
      ],
      "name": "modifyAllowedChains",
      "outputs": [],
      "stateMutability": "nonpayable",
      "type": "function"
    },
    {
      "inputs": [
        {
          "internalType": "uint256",
          "name": "_blockChainNumber",
          "type": "uint256"
        },
        {
          "internalType": "address",
          "name": "_address",
          "type": "address"
        },
        {
          "internalType": "bool",
          "name": "_isAllowed",
          "type": "bool"
        }
      ],
      "name": "modifyEndPoints",
      "outputs": [],
      "stateMutability": "nonpayable",
      "type": "function"
    },
    {
      "inputs": [
        {
          "internalType": "address",
          "name": "_oracleAddress",
          "type": "address"
        },
        {
          "internalType": "bool",
          "name": "_isAllowed",
          "type": "bool"
        }
      ],
      "name": "modifyOracleAddresses",
      "outputs": [],
      "stateMutability": "nonpayable",
      "type": "function"
    },
    {
      "inputs": [
        {
          "internalType": "address",
          "name": "_relayerAddress",
          "type": "address"
        },
        {
          "internalType": "bool",
          "name": "_isAllowed",
          "type": "bool"
        }
      ],
      "name": "modifyRelayerAddresses",
      "outputs": [],
      "stateMutability": "nonpayable",
      "type": "function"
    },
    {
      "inputs": [],
      "name": "owner",
      "outputs": [
        {
          "internalType": "address",
          "name": "",
          "type": "address"
        }
      ],
      "stateMutability": "view",
      "type": "function"
    },
    {
      "inputs": [
        {
          "internalType": "uint256",
          "name": "",
          "type": "uint256"
        },
        {
          "internalType": "uint256",
          "name": "",
          "type": "uint256"
        }
      ],
      "name": "recTrieRootPerChainIdAndBlockNumber",
      "outputs": [
        {
          "internalType": "bytes32",
          "name": "",
          "type": "bytes32"
        }
      ],
      "stateMutability": "view",
      "type": "function"
    },
    {
      "inputs": [],
      "name": "renounceOwnership",
      "outputs": [],
      "stateMutability": "nonpayable",
      "type": "function"
    },
    {
      "inputs": [
        {
          "internalType": "uint256",
          "name": "_blockchain",
          "type": "uint256"
        },
        {
          "internalType": "uint256",
          "name": "_blocknumber",
          "type": "uint256"
        }
      ],
      "name": "setLastBlock",
      "outputs": [],
      "stateMutability": "nonpayable",
      "type": "function"
    },
    {
      "inputs": [
        {
          "internalType": "uint256",
          "name": "_sourceBC",
          "type": "uint256"
        },
        {
          "internalType": "uint256",
          "name": "_blockNumber",
          "type": "uint256"
        },
        {
          "internalType": "bytes32",
          "name": "_reciptTrieRoot",
          "type": "bytes32"
        }
      ],
      "name": "setRecTrieRoot",
      "outputs": [],
      "stateMutability": "nonpayable",
      "type": "function"
    },
    {
      "inputs": [
        {
          "internalType": "address",
          "name": "newOwner",
          "type": "address"
        }
      ],
      "name": "transferOwnership",
      "outputs": [],
      "stateMutability": "nonpayable",
      "type": "function"
    },
    {
      "inputs": [
        {
          "internalType": "uint256",
          "name": "_chainId",
          "type": "uint256"
        },
        {
          "internalType": "address[]",
          "name": "_addresses",
          "type": "address[]"
        },
        {
          "internalType": "bool",
          "name": "_isAllowed",
          "type": "bool"
        }
      ],
      "name": "updateChainAddresses",
      "outputs": [],
      "stateMutability": "nonpayable",
      "type": "function"
    },
    {
      "inputs": [
        {
          "internalType": "uint256",
          "name": "_chainId",
          "type": "uint256"
        },
        {
          "internalType": "uint256",
          "name": "_blockNumber",
          "type": "uint256"
        }
      ],
      "name": "updateChainBlockNumbers",
      "outputs": [],
      "stateMutability": "nonpayable",
      "type": "function"
    },
    {
      "inputs": [
        {
          "internalType": "uint256",
          "name": "_blockchain",
          "type": "uint256"
        },
        {
          "internalType": "uint256",
          "name": "_finalityBlock",
          "type": "uint256"
        }
      ],
      "name": "verifyFinality",
      "outputs": [
        {
          "internalType": "bool",
          "name": "",
          "type": "bool"
        }
      ],
      "stateMutability": "view",
      "type": "function"
    },
    {
      "inputs": [
        {
          "components": [
            {
              "internalType": "bytes",
              "name": "status",
              "type": "bytes"
            },
            {
              "internalType": "uint256",
              "name": "cumulativeGasUsed",
              "type": "uint256"
            },
            {
              "internalType": "bytes",
              "name": "logsBloom",
              "type": "bytes"
            },
            {
              "components": [
                {
                  "internalType": "address",
                  "name": "txAddress",
                  "type": "address"
                },
                {
                  "internalType": "bytes[]",
                  "name": "topics",
                  "type": "bytes[]"
                },
                {
                  "internalType": "bytes",
                  "name": "data",
                  "type": "bytes"
                }
              ],
              "internalType": "struct RlpEncoding.Log[]",
              "name": "logs",
              "type": "tuple[]"
            },
            {
              "internalType": "bytes",
              "name": "txType",
              "type": "bytes"
            },
            {
              "internalType": "bytes",
              "name": "rlpEncTxIndex",
              "type": "bytes"
            }
          ],
          "internalType": "struct RlpEncoding.Receipt",
          "name": "_receipt",
          "type": "tuple"
        },
        {
          "internalType": "bytes[]",
          "name": "_proof",
          "type": "bytes[]"
        },
        {
          "internalType": "address",
          "name": "_msgAddress",
          "type": "address"
        },
        {
          "internalType": "uint256",
          "name": "_sourceBC",
          "type": "uint256"
        },
        {
          "internalType": "uint256",
          "name": "_sourceBlockNumber",
          "type": "uint256"
        }
      ],
      "name": "verifyReceipt",
      "outputs": [
        {
          "internalType": "bool",
          "name": "",
          "type": "bool"
        }
      ],
      "stateMutability": "view",
      "type": "function"
    }
  ],
  "bytecode": "0x60806040523461025c57611b7d8038038061001981610261565b928339810160608282031261025c5781516001600160401b03811161025c57816100449184016102b3565b60208301519091906001600160401b03811161025c57816100669185016102b3565b604084015190936001600160401b03821161025c570181601f8201121561025c5780519061009b6100968361029c565b610261565b9260208085858152019360051b8301019181831161025c5760208101935b8385106101d75787878733156101c15760008054336001600160a01b0319821681178355916001600160a01b03909116907f8be0079c531659141344cd1fd0a4f28419497f9722a3daafe3b4186f6b6457e09080a36000905b82518210156101b2576101258285610306565b516101308385610306565b51600052600460205260406000205560005b61014c8383610306565b51518110156101a7576001906101628486610306565b5160005260056020526040600020828060a01b0361018a836101848888610306565b51610306565b511660005260205260406000208260ff1982541617905501610142565b509060010190610112565b60405161184c90816103318239f35b631e4fbdf760e01b600052600060045260246000fd5b84516001600160401b03811161025c57820183603f8201121561025c5760208101516102056100968261029c565b916020808085858152019360051b830101019086821161025c57604001915b81831061023c575050508152602094850194016100b9565b82516001600160a01b038116810361025c57815260209283019201610224565b600080fd5b6040519190601f01601f191682016001600160401b0381118382101761028657604052565b634e487b7160e01b600052604160045260246000fd5b6001600160401b0381116102865760051b60200190565b9080601f8301121561025c5781516102cd6100968261029c565b9260208085848152019260051b82010192831161025c57602001905b8282106102f65750505090565b81518152602091820191016102e9565b805182101561031a5760209160051b010190565b634e487b7160e01b600052603260045260246000fdfe6080604052600436101561001257600080fd5b60003560e01c80630ca69cb2146101425780630fa9ad381461013d57806317a4294b1461013857806321746aae1461011f57806324c80f8114610133578063388476f61461012e5780634574cda91461012957806347609d2c146101245780635b85a8a51461011f578063644eb0cf1461011a578063715018a6146101155780637e8dd8cd14610110578063898dad601461010b5780638da5cb5b14610106578063918cb0fd1461010157806396bc1e8f146100fc578063a21ffc84146100f7578063be1bf4a5146100f25763f2fde38b146100ed57600080fd5b61082f565b6107dc565b61079d565b610719565b6105d8565b6105af565b610584565b6104e8565b6103e6565b6103a7565b610280565b61036b565b610318565b6102ec565b6102b2565b610216565b6101c7565b6101a2565b600435906001600160a01b038216820361015d57565b600080fd5b602435906001600160a01b038216820361015d57565b604435906001600160a01b038216820361015d57565b35906001600160a01b038216820361015d57565b3461015d57602036600319011261015d576101bb610147565b50602060405160018152f35b3461015d57604036600319011261015d57602060043560243590600052600482526040600020541015604051908152f35b60443590811515820361015d57565b60243590811515820361015d57565b3461015d57606036600319011261015d5761027e60043561026d610238610162565b6102406101f8565b92610249610c40565b600052600560205260406000209060018060a01b0316600052602052604060002090565b9060ff801983541691151516179055565b005b3461015d57604036600319011261015d5761027e6024356004356102a2610c40565b6000526004602052604060002055565b3461015d57606036600319011261015d57600435602435906000526003602052604060002090600052602052604435604060002055600080f35b3461015d57602036600319011261015d5760043560005260046020526020604060002054604051908152f35b3461015d57604036600319011261015d57602060ff61035f60043561033b610162565b906000526005845260406000209060018060a01b0316600052602052604060002090565b54166040519015158152f35b3461015d57604036600319011261015d576004356024359060005260036020526040600020906000526020526020604060002054604051908152f35b3461015d57602036600319011261015d576001600160a01b036103c8610147565b166000526001602052602060ff604060002054166040519015158152f35b3461015d57600036600319011261015d576103ff610c40565b600080546001600160a01b0319811682556001600160a01b03167f8be0079c531659141344cd1fd0a4f28419497f9722a3daafe3b4186f6b6457e08280a3005b634e487b7160e01b600052604160045260246000fd5b606081019081106001600160401b0382111761047057604052565b61043f565b604081019081106001600160401b0382111761047057604052565b90601f801991011681019081106001600160401b0382111761047057604052565b604051906104c060c083610490565b565b604051906104c0604083610490565b6001600160401b0381116104705760051b60200190565b3461015d57606036600319011261015d576024356004356001600160401b03821161015d573660238301121561015d57816004013591610527836104d1565b906105356040519283610490565b8382526024602083019460051b8201019036821161015d57602401935b81851061056c5761027e84846105666101f8565b916108b8565b602080916105798761018e565b815201940193610552565b3461015d57604036600319011261015d5761027e600435602435906000526004602052604060002055565b3461015d57600036600319011261015d576000546040516001600160a01b039091168152602090f35b3461015d57604036600319011261015d5761027e6105f4610147565b6105fc610207565b90610605610c40565b60018060a01b0316600052600260205260406000209060ff801983541691151516179055565b6001600160401b03811161047057601f01601f191660200190565b9291926106528261062b565b916106606040519384610490565b82948184528183011161015d578281602093846000960137010152565b9080601f8301121561015d5781602061069893359101610646565b90565b9080601f8301121561015d5781356106b2816104d1565b926106c06040519485610490565b81845260208085019260051b8201019183831161015d5760208201905b8382106106ec57505050505090565b81356001600160401b03811161015d5760209161070e8784809488010161067d565b8152019101906106dd565b3461015d5760a036600319011261015d576004356001600160401b03811161015d5760c0600319823603011261015d576024356001600160401b03811161015d576107999161076f61078792369060040161069b565b610777610178565b6064359160843593600401610988565b60405190151581529081906020820190565b0390f35b3461015d57602036600319011261015d576001600160a01b036107be610147565b166000526002602052602060ff604060002054166040519015158152f35b3461015d57604036600319011261015d5761027e6107f8610147565b610800610207565b90610809610c40565b60018060a01b0316600052600160205260406000209060ff801983541691151516179055565b3461015d57602036600319011261015d57610848610147565b610850610c40565b6001600160a01b031680156108a257600080546001600160a01b03198116831782556001600160a01b0316907f8be0079c531659141344cd1fd0a4f28419497f9722a3daafe3b4186f6b6457e09080a3005b631e4fbdf760e01b600052600060045260246000fd5b9291926108c3610c40565b60005b82518110156109155760019082600052600560205261090f8661026d6040600020858060a01b036108f7868a610974565b511660018060a01b0316600052602052604060002090565b016108c6565b5050509050565b634e487b7160e01b600052603260045260246000fd5b80511561093f5760200190565b61091c565b80516001101561093f5760400190565b80516002101561093f5760600190565b80516003101561093f5760800190565b805182101561093f5760209160051b010190565b929093916109b760ff9183600052600560205260406000209060018060a01b0316600052602052604060002090565b541615610ad25760005260036020526040600020906000526020526040600020549060c08136031261015d576109eb6104b1565b9281356001600160401b03811161015d57610a09903690840161067d565b84526020820135602085015260408201356001600160401b03811161015d57610a35903690840161067d565b604085015260608201356001600160401b03811161015d57610a5a9036908401610b23565b606085015260808201356001600160401b03811161015d57610a7f903690840161067d565b608085015260a08201938435906001600160401b03821161015d5761069895610abf610ac592610ab5610acc953690890161067d565b60a0820152610d54565b94610c0e565b3691610646565b92610fbe565b60405162461bcd60e51b815260206004820152602360248201527f4576656e742066726f6d20616e20756e617574686f72697a656420656e64706f6044820152621a5b9d60ea1b6064820152608490fd5b9080601f8301121561015d57813591610b3b836104d1565b92610b496040519485610490565b80845260208085019160051b8301019183831161015d5760208101915b838310610b7557505050505090565b82356001600160401b03811161015d578201906060828703601f19011261015d5760405190610ba382610455565b610baf6020840161018e565b825260408301356001600160401b03811161015d57876020610bd39286010161069b565b60208301526060830135916001600160401b03831161015d57610bfe8860208096958196010161067d565b6040820152815201920191610b66565b903590601e198136030182121561015d57018035906001600160401b03821161015d5760200191813603831361015d57565b6000546001600160a01b03163303610c5457565b63118cdaa760e01b6000523360045260246000fd5b60405160809190610c7a8382610490565b6003815291601f19018260005b828110610c9357505050565b806060602080938501015201610c87565b60405160a09190610cb58382610490565b6004815291601f19018260005b828110610cce57505050565b806060602080938501015201610cc2565b90610ce9826104d1565b610cf66040519182610490565b8281528092610d07601f19916104d1565b019060005b828110610d1857505050565b806060602080938501015201610d0c565b9081519160005b838110610d41575050016000815290565b8060208092840101518185015201610d30565b6060810191610d64835151610cdf565b9060005b845151811015610e6b57600190610e4f610d80610c69565b610dde610dcb610dd9610da5610d97878d51610974565b51516001600160a01b031690565b604051928391602083016014916bffffffffffffffffffffffff199060601b1681520190565b03601f198101835282610490565b6110f2565b610de782610932565b52610df181610932565b50610e0a6020610e02858b51610974565b510151611141565b610e1382610944565b52610e1d81610944565b50610e366040610e2e858b51610974565b5101516110f2565b610e3f82610954565b52610e4981610954565b5061119e565b610e598286610974565b52610e648185610974565b5001610d68565b509250610ef5608091610ee2610e7f610ca4565b91610e8a86516110f2565b610e9384610932565b52610e9d83610932565b50610eae610dd9602088015161121d565b610eb784610944565b52610ec183610944565b50610ecf60408701516110f2565b610ed884610954565b52610e4983610954565b610eeb82610964565b52610e4981610964565b9101517fbc36789e7a1e281436464229828f817d6612f7b477d66591ff96a9e064bcc98a8151602083012003610f29575090565b61069890610dcb610f44936040519485936020850190610d29565b90610d29565b634e487b7160e01b600052601160045260246000fd5b600019810191908211610f6f57565b610f4a565b60bf19810191908211610f6f57565b607f19810191908211610f6f57565b6020039060208211610f6f57565b91908203918211610f6f57565b90815181101561093f570160200190565b9290916000935b835185101561107957610fd88585610974565b5190815160208301200361107957610ff2610ff7916112ac565b6112fb565b805160118103611096575061100c8560011c90565b83518110156110835761103b61103561102760ff9387610fad565b516001600160f81b03191690565b60f81c90565b6001871661108e5760041c600f165b1660108110156110835761105d91610974565b51805115611079576110706001916113f2565b945b0193610fc5565b5050505050600090565b505050505050600090565b600f1661104a565b600203611079576110a78451610f60565b85146110c7576110c16110bb600192610944565b516113f2565b94611072565b9093506110df92506110d99150610944565b516113c8565b6020815191012090602081519101201490565b8051600181149081611129575b506106985761069881610dcb611118610f449451611465565b916040519485936020850190610d29565b90501561093f576080602082015160f81c10386110ff565b60009060605b815183101561118757610f4461117f600192610dcb61116f6111698888610974565b516110f2565b6040519485936020850190610d29565b920191611147565b610f4492506106989150610dcb6111188251611560565b60009060605b815183101561118757610f446111d4600192610dcb6111c38787610974565b516040519485936020850190610d29565b9201916111a4565b6000198114610f6f5760010190565b906111f58261062b565b6112026040519182610490565b8281528092611213601f199161062b565b0190602036910137565b600081805b61127f5750611230816111eb565b916000905b8282106112425750505090565b600019830190838211610f6f57828203918211610f6f5760019161127360ff60f81b8360f81b1660001a9187610fad565b5360081c910190611235565b90611289906111dc565b9060081c80611222565b604051906112a082610475565b60006020838281520152565b6112b4611293565b506020815191604051926112c784610475565b835201602082015290565b9060378201809211610f6f57565b9060018201809211610f6f57565b91908201809211610f6f57565b611304816115ee565b1561015d5761131281611615565b61131b816104d1565b916113296040519384610490565b818352601f19611338836104d1565b0160005b8181106113b1575050602061135c91015161135681611677565b906112ee565b6000905b82821061136d5750505090565b6113a98161137c6001936116e4565b906113856104c2565b8281528160208201526113988689610974565b526113a38588610974565b506112ee565b910190611360565b6020906113bc611293565b8282880101520161133c565b80511561015d576113db61069891611763565b6113e7819392936111eb565b92836020019061179e565b80518015159081611428575b501561015d5761140d90611763565b9051906020811061141c575090565b6020036101000a900490565b602191501115386113fe565b908160031b9180830460081490151715610f6f57565b600190610698939260ff60f81b9060f81b1681520190610d29565b60388110156114aa576106986114886114826080610dcb946112ee565b60ff1690565b60405160f89190911b6001600160f81b03191660208201529182906021820190565b600081805b61154657506114bd816111eb565b9160005b8281106114f55750506114e36114826114de6080610698946112ee565b6112d2565b610dcb6040519384926020840161144a565b8061151f61150f84611508600195611434565b1c60ff1690565b60f81b6001600160f81b03191690565b61153f6115348361152f88610f60565b610fa0565b9160001a9187610fad565b53016114c1565b9061155361155a916111dc565b9160081c90565b806114af565b603881101561157d5761069861148861148260c0610dcb946112ee565b600081805b6115db5750611590816111eb565b9160005b8281106115b15750506114e36114826114de60c0610698946112ee565b806115c461150f84611508600195611434565b6115d46115348361152f88610f60565b5301611594565b906115536115e8916111dc565b80611582565b80511561160f57602060c09101515160001a1061160a57600190565b600090565b50600090565b80511561160f576000906020810190815161162f81611677565b8101809111610f6f57915190518101809111610f6f5791905b8281106116555750905090565b61165e816116e4565b8101809111610f6f5761167190916111dc565b90611648565b5160001a608081101561168a5750600090565b60b8811080156116ce575b156116a05750600190565b60c08110156116bf57610698906116ba9060b75b90610fa0565b6112e0565b610698906116ba9060f76116b4565b5060c08110158015611695575060f88110611695565b805160001a9060808210156116fa575050600190565b60b882101561171057506116ba61069891610f83565b60c08210156117335760010151602082900360b7016101000a90040160b5190190565b60f882101561174957506116ba61069891610f74565b60010151602082900360f7016101000a90040160f5190190565b9060208201916117738351611677565b925190838201809211610f6f5751928303928311610f6f579190565b601f8111610f6f576101000a90565b90918015611811575b60208110156117e157806117ba57505050565b6117ce6117c96117d392610f92565b61178f565b610f60565b905182518216911916179052565b91908051825260208101809111610f6f579060208101809111610f6f5791601f198101908111156117a757610f4a565b50505056fea26469706673582212208a5e73b3cdedb410ee6a63ad2a27572b4e8735f240dee904caa3054f9d9aafdd64736f6c634300081b0033",
  "linkReferences": {},
  "deployedLinkReferences": {}
}